{
  "contractName": "studentZeeshanZia",
  "abi": [
    {
      "inputs": [
        {
          "internalType": "uint256",
          "name": "_sender",
          "type": "uint256"
        },
        {
          "internalType": "uint256",
          "name": "_receiver",
          "type": "uint256"
        },
        {
          "internalType": "uint256",
          "name": "_amount",
          "type": "uint256"
        },
        {
          "internalType": "uint256",
          "name": "_senderMsisdn",
          "type": "uint256"
        },
        {
          "internalType": "uint256",
          "name": "_receiverMsisdn",
          "type": "uint256"
        }
      ],
      "name": "SendMoneyTransaction",
      "outputs": [],
      "stateMutability": "nonpayable",
      "type": "function"
    },
    {
      "inputs": [
        {
          "internalType": "uint256",
          "name": "_sender",
          "type": "uint256"
        },
        {
          "internalType": "uint256",
          "name": "_receiver",
          "type": "uint256"
        },
        {
          "internalType": "uint256",
          "name": "_amount",
          "type": "uint256"
        }
      ],
      "name": "SendMoneyTransaction",
      "outputs": [],
      "stateMutability": "nonpayable",
      "type": "function"
    },
    {
      "inputs": [],
      "name": "ReadMoneyTransaction",
      "outputs": [
        {
          "internalType": "uint256",
          "name": "",
          "type": "uint256"
        },
        {
          "internalType": "uint256",
          "name": "",
          "type": "uint256"
        },
        {
          "internalType": "uint256",
          "name": "",
          "type": "uint256"
        }
      ],
      "stateMutability": "view",
      "type": "function",
      "constant": true
    }
  ],
  "bytecode": "0x608060405234801561001057600080fd5b5061027f806100206000396000f3fe608060405234801561001057600080fd5b50600436106100415760003560e01c8063aa2df19d14610046578063d629125714610062578063fccff79d14610082575b600080fd5b610060600480360381019061005b9190610135565b61009e565b005b61006a6100c8565b604051610079939291906101bf565b60405180910390f35b61009c600480360381019061009791906101f6565b6100e0565b005b84600081905550836001819055508260028190555081600081905550806001819055505050505050565b60008060008054600154600254925092509250909192565b826000819055508160018190555080600281905550505050565b600080fd5b6000819050919050565b610112816100ff565b811461011d57600080fd5b50565b60008135905061012f81610109565b92915050565b600080600080600060a08688031215610151576101506100fa565b5b600061015f88828901610120565b955050602061017088828901610120565b945050604061018188828901610120565b935050606061019288828901610120565b92505060806101a388828901610120565b9150509295509295909350565b6101b9816100ff565b82525050565b60006060820190506101d460008301866101b0565b6101e160208301856101b0565b6101ee60408301846101b0565b949350505050565b60008060006060848603121561020f5761020e6100fa565b5b600061021d86828701610120565b935050602061022e86828701610120565b925050604061023f86828701610120565b915050925092509256fea2646970667358221220e43ab3b1a1023d009d9fc7cc52c6d7ccc3afa78f34a3a3cd4725995a5a5dc30664736f6c634300080b0033",
  "immutableReferences": {},
  "source": "/* \nAssignment: 39.6 Lab Assignment\nStudent: Zeeshan Zia https://www.linkedin.com/in/ziazeeshan/\n+++ Request to Farhan Sb: Kindly add me to your linkedIn +++\n*/\n\n// SPDX-License-Identifier: MIT\npragma solidity >=0.4.22 <0.9.0;\n\ncontract studentZeeshanZia {\n    uint private senderMsisdn;      // Sender Mobile Number - positive int only\n    uint private receiverMsisdn;    // Receiver Mobile Number - positive int only\n    uint private amountInPkr;       // amount to transfer - positive int only\n    string private senderName;      // Sender name - string \n    string private receiverName;    // Receiver name - string\n    bool approvedBySender;          // Sender approval - boolean\n\n    function SendMoneyTransaction(uint _sender, uint _receiver, uint _amount) public {\n        senderMsisdn = _sender;\n        receiverMsisdn = _receiver;\n        amountInPkr = _amount;\n    }\n\n    function SendMoneyTransaction(uint _sender, uint _receiver, uint _amount, uint _senderMsisdn, uint _receiverMsisdn) public {\n        senderMsisdn = _sender;\n        receiverMsisdn = _receiver;\n        amountInPkr = _amount;\n        senderMsisdn = _senderMsisdn;\n        receiverMsisdn = _receiverMsisdn;\n    }\n\n    function ReadMoneyTransaction() public view returns(uint,uint,uint) {\n        return(senderMsisdn,receiverMsisdn,amountInPkr);\n    }\n\n    \n}",
  "sourcePath": "/home/zia/projects_solidity/3_studentZeeshanZia/contracts/studentZeeshanZia.sol",
  "compiler": {
    "name": "solc",
    "version": "0.8.11+commit.d7f03943.Emscripten.clang"
  },
  "schemaVersion": "3.4.4",
  "updatedAt": "2022-02-24T18:52:26.848Z",
  "networkType": "ethereum",
  "devdoc": {
    "kind": "dev",
    "methods": {},
    "version": 1
  },
  "userdoc": {
    "kind": "user",
    "methods": {},
    "version": 1
  }
}